:020000040800F2
:10400000E0D70220C141000851AF000863980008C2
:104010004DAF00081956000821BA00080000000042
:10402000000000000000000000000000CFB0000809
:104030005B5D0008000000008DAF0008D1B00008F3
:10404000DB410008DB410008DB410008DB410008E0
:10405000DB410008DB410008DB410008DB410008D0
:10406000715D0008DB4100087B5D0008915B000882
:10407000A15B0008B15B0008C15B0008DB410008E0
:10408000D15B0008E15B0008D5520008DB41000865
:10409000DB410008DB410008DB410008DB41000890
:1040A000DB410008DB410008DB410008DB41000880
:1040B000DB410008DB410008DB410008799800087B
:1040C00069980008DB410008DB410008DB4100087B
:1040D000DB410008DB41000861B90008A1B9000814
:1040E0005D5D0008DB410008DB410008DB410008A2
:1040F000DB410008DB410008DB410008F15B000800
:10410000DB410008DB410008DB410008DB4100081F
:10411000DB410008DB410008DB410008DB4100080F
:10412000015C0008115C0008215C0008315C00089B
:10413000DB410008DB410008DB410008DB410008EF
:10414000DB410008DB410008DB410008DB410008DF
:10415000DB410008415C0008DB410008E1B90008D0
:10416000DB410008DB410008DB410008DB410008BF
:10417000DB410008DB410008DB41000800000000D3
:10418000DB410008DB410008DB410008DB4100089F
:10419000DB410008DB410008DB410008DB4100088F
:1041A000DB410008DB410008DB410008DFF80CD0F0
:1041B00000F01AFE00480047A5290108E0D70220B8
:1041C0000648804706480047FEE7FEE7FEE7FEE7B1
:1041D000FEE7FEE7FEE7FEE7FEE7FEE7DDB10008EB
:1041E000AD41000840EA01039B0703D009E008C97C
:1041F000121F08C0042AFAD203E011F8013B00F8AC
:10420000013B521EF9D27047D2B201E000F8012BF7
:10421000491EFBD270470022F6E710B513460A4646
:1042200004461946FFF7F0FF204610BD421C10F867
:10423000011B0029FBD1801A704710B5002200E055
:10424000521C835C8C5CA34201D1002BF8D1D8B204
:10425000E1B2401A10BD30B504460020034600E02C
:104260005B1C934203D2E05CCD5C401BF8D030BDB8
:104270000FB400B58DB010A909900B9000914FF0CC
:10428000FF300A9000200C900548069005480790E2
:104290006A4609A80F9900F0ADFC0DB05DF814FB5B
:1042A000114C00082F4C00082DE9FF5F1D464FF010
:1042B000FF3BD5E9014691465F464FF00008A969EA
:1042C0007F1C01988847296A824688470028F6D1D2
:1042D000BAF1FF3F0CD024F4C064002E19DD600653
:1042E00014D5BAF12B0F09D0BAF12D0F0ED103E07E
:1042F000584604B0BDE8F09F44F48064A9697F1C6F
:1043000001988847761E8246002E02DDBAF1300FF2
:1043100003D0B9F1000F26D032E0A969761E44F42B
:1043200000747F1C019888478246002E05DDBAF193
:10433000780F06D0BAF1580F03D0B9F1000F10D0A2
:104340001EE0B9F1000F02D0B9F1100F18D1A96920
:10435000761E24F400747F1C019888478246102042
:1043600002E0082000E00A20814609E008FB090875
:10437000A969761E44F400747F1C01988847824620
:10438000002E05DD4946504600F020FC0028EDDAFD
:10439000E96901988847A00502D46FF00100A8E7F9
:1043A000E00725D1600613D5600502D5C8F10000ED
:1043B00000E0404629680A1D2A600968220501D5E7
:1043C000087015E0220701D5088011E008600FE0B1
:1043D0002868011D29600068210502D580F8008049
:1043E00006E0210702D5A0F8008001E0C0F80080B7
:1043F00038467EE72DE9FF4F087881B09946FF28BF
:1044000005D0491C2D2804D00024002308E00023F7
:104410000BE00124F9E703EB830300EB4303491CA2
:104420000878FF28F7D104B15B420020009014788F
:1044300001462D2C01D02B2C04D1521C2D2C12D036
:104440000024009400251678FF2E0ED00A24A0FB2D
:1044500004C801FB0481002700FB0711521C16EB66
:104460000C006941EFE70124EBE7994450EA0102AF
:104470000ED00024AA4D2646DFF8A88200F05CFC8E
:1044800082468B46B9F1000009DAC9F100071BE04A
:1044900001980021C0E9001105B0BDE8F08F074682
:1044A00012E0F80707D022462B463046414600F07E
:1044B000E4F90646884622462B461046194600F087
:1044C000DCF904460D467F10002FEAD1B9F1000F48
:1044D000324643465046594602DA00F040FA01E0BF
:1044E00000F0CBF9009A0AB181F00041019AC2E9CB
:1044F0000001D1E72DE9FF4F1F468DB0D7E90146F6
:104500004FF0FF382E2045464FF000090B90B96957
:104510006D1C0E988847396A824688470028F6D174
:10452000BAF1FF3F0AD024F4D064002E11DDBAF1B5
:104530002B0F08D0BAF12D0F0BD102E0404611B07D
:10454000ABE744F48064B9696D1C0E9888478246D5
:10455000761E6946600501D52D2000E02B208DF8E0
:10456000000001F1010B0DF1200809E0B9696D1C93
:104570000E98884782460F9844F40074761E0560B2
:10458000002E02DDBAF1300FF0D00B998A453ED1F2
:1045900044F0800406E00F99681CA9F1010944F475
:1045A00000740860B9696D1C761E0E9888478246B3
:1045B0003028F0D02BE00B998A4505D1200603D492
:1045C00044F08004761E18E0504608F029FA08B33B
:1045D0000DF11301761E44F400748B4508D2AAF144
:1045E00030000BF8010B200607D5A9F1010003E00C
:1045F000200602D409F101008146A00502D50F99D9
:10460000681C0860B9696D1C0E9888478246002EA8
:10461000D1DC53E0002E51DDBAF1650F02D0BAF1C2
:10462000450F4BD1A00549D5B9696D1C24F44074E0
:10463000761E0E9888478246002E0CDD2B2804D06B
:10464000BAF12D0F07D144F48074B9696D1C0E982E
:1046500088478246761EE00501D52D2100E02B21FA
:1046600008F8011BCDF82C8021E00DF12901761E00
:1046700044F4007488450CD2AAF1300010F0FF0019
:1046800088F8000002D10B99884509D908F1010882
:1046900006E0E00501D5244801E042F20F708146B2
:1046A000B9696D1C0E98884782460F980560002EE8
:1046B00004DD504608F0B4F90028D6D1F9690E9807
:1046C0008847FF208BF8000088F800000020069043
:1046D00007904B466A4608A906A8FFF78BFEA0057F
:1046E00002D46FF001002AE714F0240F0AD0E0078B
:1046F00014D1DDE906123868031D3B600068C0E98B
:1047000000120BE0DDE9060100F052FB0146E00774
:1047100004D13868021D3A600068016028460EE73F
:10472000000024400000F03FF1D8FFFF2DE9FE4FCC
:10473000804681EA0300C00F0C46009021F0004142
:1047400023F00045B8EB0200A94105D240462146BE
:1047500090461C460B46024623F00040104347D0CB
:10476000270DC7F30A00C3F30A510290401A0190C3
:1047700040286BDAC3F3130040F4801B0098924684
:1047800020B10023D2EB030A63EB0B0B01985946CF
:10479000C0F14002504600F0E8F906460D4650468A
:1047A0005946019A00F000FA10EB0800614100241C
:1047B00087EA115284EAE7731A4340D0009A62B341
:1047C000019A012A4FEA075215DC001B61EB020136
:1047D0004FF0004202EA0752CDE90042001C41F5C9
:1047E000801132462B4600F042FA03B0BDE8F08F4C
:1047F00040462146F9E7001B61EB0201001C41F530
:10480000801300185B412018A2F5001747EB030145
:1048100040EAD570B6196D4111E06D084FEA3606D1
:1048200045EAC0754FEA0752001B61EB0201001C0C
:1048300041F5801149084FEA3000001951413246D4
:104840002B4603B0BDE8F04F00F002BA00980122F9
:1048500040000023D0EB020263EBE0730098214696
:104860004FEAE074B8EB000061EB0401E9E783F084
:1048700000435BE781F0004158E72DE9FE4F81EAF4
:10488000030404F0004421F0004100944FF0000BB9
:1048900023F0004350EA01045ED052EA03045BD0E7
:1048A000C3F30A54C1F30A552C44A4F2F33401941F
:1048B000A0FB0254C1F3130141F48011C3F31303AD
:1048C00043F4801301FB024400FB034E840A970A61
:1048D00044EA815447EA8357A4FB076802958D0A8E
:1048E00005FB07854FEA932C04FB0C542705029D1A
:1048F0004FEA065847EA1637B5EB08056EEB070C8A
:10490000870E920E47EA811742EA8312A7FB020143
:10491000B6EB0B0164EB00042B0D43EA0C335E187D
:1049200044EB1C50DA465146E7FB0201C5F3130481
:104930004FEA0B3343EA14534FEA0432019C43EA33
:104940000603A4F10C040294009CCDE900B400F02D
:104950008EF903B0BDE8F08F00200146F9E72DE99C
:10496000F04D81EA030404F0004B21F000451446A9
:104970004FF0000A23F0004150EA050220D054EA2B
:1049800001021DD0C5F30A570246C5F31303C1F354
:104990001300C1F30A5640F4801543F48013A7EBCB
:1049A0000608101BD64608F2FD3873EB050002D34B
:1049B00008F1010801E092185B41B8F1000F03DA39
:1049C00000200146BDE8F08D00204FF4801106461E
:1049D00084460EE0171B73EB050705D3121B63EB30
:1049E000050306434CEA010C49084FEA30009218CF
:1049F0005B4150EA0107EDD152EA030012D082EA8E
:104A0000040083EA0501084305D0101BAB4106D220
:104A10000122002306E000224FF0004302E06FF085
:104A2000010253101AEB06004CEB085110EB0A0080
:104A300041EB0B01BDE8F04D00F00AB90EB5C10F16
:104A400080EAE0700844CA07002140F233438DE851
:104A50000E000A460B4600F00AF903B000BD0EB581
:104A600040F2334102910021CDE900110A460B4684
:104A700000F0FDF803B000BD70B5C1F30A5201F0BB
:104A800000450024C1F3130140F2FF3341F48011CB
:104A90009A4201DA002070BD40F233439A42A2F2FA
:104AA000334203DC524200F06FF800E090402C43A8
:104AB000F1D0404270BD00F0004230F000400AD01A
:104AC000C10D01F56071C0F3160042EA0151C20840
:104AD00040071143704700200146704730B50B4630
:104AE000014600202022012409E021FA02F59D421E
:104AF00005D303FA02F5491B04FA02F52844151EF2
:104B0000A2F10102F1DC30BD2DE9F05F0546002085
:104B100092469B4688460646814640241BE028462E
:104B200041464746224600F02FF853465A46C01ADF
:104B3000914110D311461846224600F016F82D1A5E
:104B400067EB01084F4622460120002100F00DF8D6
:104B500017EB00094E41201EA4F10104DFDC48469A
:104B600031462A464346BDE8F09F202A04DB203A1E
:104B700000FA02F1002070479140C2F1200320FAB0
:104B800003F3194390407047202A04DB203A21FAAE
:104B900002F00021704721FA02F3D040C2F1200256
:104BA0009140084319467047202A06DBCB17203A6C
:104BB00041FA02F043EAE07306E041FA02F3D04022
:104BC000C2F1200291400843194670473A2800D2AA
:104BD000303820F02002412A01D3A2F13700884268
:104BE00001D34FF0FF307047026811441378016021
:104BF00018467047D160044951610449116200218F
:104C00001161114600F008B9E94B00080D4E00088B
:104C1000426842B1016811F8013B23B1521EC0E95C
:104C20000012184670470121C160881E7047426813
:104C30005AB1C368016843B983688B4205D0491EE5
:104C4000521CC0E90012002070474FF0FF3070473F
:104C500010B5141E73F1000408DA401C41F1000184
:104C600092185B411A4301D120F0010010BD2DE9DB
:104C7000F04D92469B4611B1B1FA81F202E0B0FAD2
:104C800080F220329046FFF770FF04460F4640EA5C
:104C90000A0041EA0B0153465A46084313D0114615
:104CA00053EA010019D0C8F140025046FFF76CFFEB
:104CB00005460E46504659464246FFF756FF084302
:104CC00005D0012004E020463946BDE8F08D0020E3
:104CD000054346EAE0762C4337430A986305E40A25
:104CE000A0EB08000022FD0A44EA47540A3002D52E
:104CF00000200146E9E7010510196941DDE9084591
:104D000000196941BDE8F04DA2E770B521F00043FC
:104D100003430CD0C1F30A550024D5EB040564EB22
:104D20000403D617AD1AB34102DB0020014670BD63
:104D3000201841EB025170BD0EB540F23342029291
:104D40000022CDE900221346FFF791FF03B000BD1A
:104D5000C1F30A52C1F3130140F2FF3341F4801151
:104D60009A4202DA00200146704740F233439A42E9
:104D7000A2F2334202DC5242FFF706BFFFF7F5BE54
:104D800030B5041E71F1000404DB4FF000444042D2
:104D900064EB0101141E73F1000405DB1C464FF0A7
:104DA0000043524263EB0403994208BF904230BD76
:104DB00001F0004330B421F0004150EA010206D076
:104DC0000A0DA2F56072C1F31301002A02DC30BCA7
:104DD00000207047440F44EAC104C100E01830BC11
:104DE00000EBC25000F0AEB9064C074D06E0E0689B
:104DF00040F0010394E8070098471034AC42F6D322
:104E0000FFF7D8F9A4B70108C4B70108C0B24FF43E
:104E1000F05100F01FBA00002DE9F34F8BB04FF0B6
:104E2000000801F10C000C464FF0010B46460DF155
:104E3000080A01906269012101989047051E2DD052
:104E4000252D2CD0216A8847C0B1626901210198C3
:104E50009047216A88470028F7D1411E626901986E
:104E6000904700E0761CA1690B988847216A884723
:104E70000028F7D1E1690B988847DBE7A1690B9817
:104E800088470746A84201D1761CD3E7E1690B9811
:104E900088477F1C02D1B8F1000F6FD046E1002790
:104EA00062693D463946019890472A2804D16269D3
:104EB0000121019890470125DFF884926269012160
:104EC00001989047A0F130010A290AD24F45E5DC4C
:104ED00007EB870100EB4107303FDFD445F01005B9
:104EE000ECE7E90601D46FF000476C280AD04C28A3
:104EF00014D0682815D06A280DD074281CD07A28C0
:104F00001AD01DE062690121019890476C2802D0F7
:104F100045F0040514E045F002050DE045F02005DC
:104F20000AE06269012101989047682802D045F0A3
:104F3000080505E045F40065626901210198904784
:104F4000C4E9015765283DD019DC58287AD00CDC1B
:104F5000452837D004DC252826D0412831D131E03E
:104F600046282FD047282CD12CE05B2877D0612809
:104F700028D063287CD0642823D15AE0D0E06F2861
:104F800048D008DC66281DD067281BD0692821D0AE
:104F90006E2816D127E0702845D0732868D0752870
:104FA00047D078280DD14DE0A1690B988847054678
:104FB00025283FF469AFE1690B9888476D1C3FF4E1
:104FC0006AAFB3E023466A466FF001000B99FFF722
:104FD00091FA9EE045F040006060A80723464FF03C
:104FE000000236D43EE0E8077FF447AF2068011D99
:104FF00021600068290501D506701BE7290701D546
:10500000068017E7A90703D5F117C0E9006111E78A
:1050100006600FE745F040006060A80723464FF0A8
:10502000080216D41EE040F60E0125EA0100606079
:1050300016E045F040006060A80723464FF00A02E2
:1050400007D40FE045F040006060A80708D523466C
:1050500010226FF001000B99AFF3008059E007E0D8
:10506000234610226FF001000B99FFF71DF950E065
:105070004FF000094F464B46632802D05B2806D00C
:1050800040E0E80601D40120A06001273AE062690F
:105090000121019890475E2805D14FF0010962690E
:1050A000494601989047216939B900210A4653467B
:1050B00043F82120491C0829FADBB0B3216969B9FA
:1050C000C11700EBD16253110AEB830122F01F02DA
:1050D000821A01200B68904003430B606269012132
:1050E000019890475D28E8D1B9F1000F09D0002060
:1050F000514651F82020D24341F82020401C082876
:10510000F7DB02AB224600976FF001000B99AFF37B
:10511000008000280CDA401C08D1BBF1000F05D03C
:105120004FF0FF300DB0BDE8F08FFFE74046F9E7E4
:10513000E90701D108F1010806444FF0000B79E6B8
:10514000CCCCCC0C0029A8BF7047401C490008BF3C
:1051500020F00100704710B4B0FA80FC00FA0CF0A7
:1051600050EA010404BF10BC704749B1CCF12004DF
:1051700021FA04F411FA0CF118BF0121214308436C
:10518000A3EB0C01CB1D4FEA00614FEA102042BF98
:10519000002010BC704700EBC35010440029A4BF8E
:1051A00010BC7047401C490008BF20F0010010BC33
:1051B00070472DE9F04D00231A461B1A8A4103DB84
:1051C00000200146BDE8F08DC1F30A52C1F313017E
:1051D00041F480154FF0000BD10702D100186D414A
:1051E000521E0027044640F2FF11384601EB620AC6
:1051F0003E468046024600204FF48011FFF7C4FC73
:10520000C2197141BB1846EB0100B4EB030C75EBFE
:10521000000C04D3E41A65EB000517460E4624196A
:1052200008F101006D4180463428E3DDF91946EBB1
:105230000600091BA84103D24FF0FF32134601E0DC
:10524000002213461BEB070046EB0A51BDE8F04D68
:10525000FFF7FEBC7F2801D9002208E0064A02EBD6
:105260005002C007127800D1120902F00F0201208B
:10527000904008407047000080A9010870B58C1864
:1052800010F8015B15F0070301D110F8013B2A115A
:1052900006D110F8012B03E010F8016B01F8016B47
:1052A0005B1EF9D12B0705D40023521E0DD401F843
:1052B000013BFAE710F8013BCB1A921C03E013F80C
:1052C000015B01F8015B521EF9D5A142D8D3002041
:1052D00070BD000010B5024800F0ADFF10BD000029
:1052E000D404002010B558494A6822F440324A607C
:1052F0004A6843681A434A600268526822F480721E
:1053000003685A6002685368026943EA022203682C
:105310005A600268526822F0407203685A6002685C
:10532000526883681A4303685A600268926822F4DC
:10533000006203689A6002689268C3681A4303684F
:105340009A60424B826A9A4218D00268926822F0B0
:10535000706203689A6002689268836A1A430368FD
:105360009A600268926822F0405203689A6002686C
:105370009268C36A1A4303689A600BE002689268F5
:1053800022F0706203689A600268926822F04052CC
:1053900003689A600268926822F0020203689A60C9
:1053A00002689368826943EA420203689A60026A6B
:1053B000D2B10268526842F4006203685A6002681F
:1053C000526822F4604203685A6002685368426A75
:1053D000521E4FF4604494FAA4F4B4FA84F4A24048
:1053E00013430268536005E00268526822F40062C9
:1053F00003685A600268D26A22F470020368DA62B3
:105400000268D36A828B521E43EA02520368DA6250
:105410000268926822F4007203689A6002689368D6
:10542000026B43EA422203689A600268926822F49F
:10543000806203689A6002689368426943EA822244
:1054400003689A6010BD0000002301400100000FB6
:1054500030B50B460021202834DD402832DA1C24E8
:105460006A4D2C770425694C84F82250002584F875
:105470002350674CB4F81150644C25848025A4F85F
:105480001D50A0F12104A2B2012404FA02F15F4CE4
:10549000646A0C40002C14D15C4C646A0C435B4D74
:1054A0006C625C4C64780F2C06DC5A4C647804F017
:1054B0000F05564C28346355564C6478641C554D82
:1054C0006C70A1E020282CDA1C24504D2C70042490
:1054D000AC710024EC714E4CB4F81140AC808024C7
:1054E000A5F80140C41EA2B2012404FA02F12C4620
:1054F000A4680C40002CE4D12C46A4680C43AC609A
:10550000444C24780F2C06DC424C247804F00F0520
:105510003E4C0C3463553F4C2478641C3D4D2C703C
:1055200072E000F07F04602C34DD1C24374D85F8D8
:1055300054400425354C84F85A50002584F85B50BB
:10554000334CB4F81150314CA4F858508025A4F8CD
:105550005550A0F16104A2B2012404FA02F12B4CCF
:10556000E46D0C40002C4FD1284CE46D0C43274DCA
:10557000EC65284CE4780F2C06DC264CE47804F02B
:105580000F05224C60346355224CE478641C214D95
:10559000EC7039E000F07F04602C35DA00F07F0415
:1055A000422C31DD1C24194D85F838400425174C58
:1055B00084F83E50002584F83F50154CB4F8115043
:1055C000124CA5878025A4F83950A0F14304A2B25B
:1055D000012404FA02F10D4C246C0C40A4B90B4CCC
:1055E000246C0C43094D2C640A4CA4780F2C06DC67
:1055F000084CA47804F00F05044C44346355054C62
:10560000A478641C034DAC7030BD00002C2D01202B
:1056100038330120D402002000BFFEE738B504462D
:1056200081223021204600F045FA0546C122312171
:10563000204600F03FFA054616225321204600F08E
:1056400039FA054646222421204600F033FA054661
:1056500047222521204600F02DFA05460F2226215B
:10566000204600F027FA0546F8223621204600F0B1
:1056700021FA054683224621204600F01BFA054602
:1056800014224721204600F015FA05463F224A2100
:10569000204600F00FFA05465A224C21204600F021
:1056A00009FA054603224F21204600F003FA054679
:1056B00010225621204600F0FDF905460E22572102
:1056C000204600F0F7F9054603225821204600F055
:1056D000F1F9054640220C21204600F0EBF9054681
:1056E00000224421204600F0E5F90546272220212A
:1056F000204600F0DFF9054688222321204600F0ED
:10570000D9F9054628222121204600F0D3F9054683
:1057100018220121204600F0CDF90546002211464D
:10572000204600F0C7F90546204614F08BF943499E
:1057300001EB0010807830B96A463021204600F035
:10574000E5F8054638BD204614F07CF93B4901EBED
:1057500000108078012811D143220C21204600F04E
:10576000A9F9054600220D21204600F0A3F90546BF
:1057700065225A21204600F09DF90546204614F086
:1057800061F92E4901EB00108078022853D14322A1
:105790000C21204600F08EF9054600220D212046FE
:1057A00000F088F90546F8223621204600F082F9FB
:1057B000054600224421204600F07CF9054685225A
:1057C0004621204600F076F905461422472120465E
:1057D00000F070F905463F224A21204600F06AF9A0
:1057E00005465A224C21204600F064F905462B223A
:1057F0004F21204600F05EF9054610225621204632
:1058000000F058F905460E225721204600F052F9C3
:10581000054603225821204600F04CF90546052292
:105820005A21204600F046F9054608225B21204611
:1058300000F040F9054600BF84E700007028012011
:1058400033B583B004462A48844206D100224FF47F
:105850000041284801F0B8FB1AE02748844205D1EE
:1058600000224021254801F0AFFB11E0244884428A
:1058700005D1002210211F4801F0A6FB08E02148B5
:10588000844205D100224FF400611F4801F09CFBC7
:105890000120034602AA04A90090204603F0D5F98E
:1058A00005461348844205D10122D103114801F075
:1058B0008BFB19E01048844205D1012240210F489A
:1058C00001F082FB10E00E48844205D10122102134
:1058D000084801F079FB07E00A48844204D101221C
:1058E000D102094801F070FB9DF8080005B030BDF9
:1058F000A8060020000002405807002000140240C3
:105900005006002000070020001002402DE9FC4155
:1059100004460D461746102040EA25208DF8040065
:10592000E8B28DF80500FF208DF806002948844272
:1059300006D100224FF40041274801F045FB1AE050
:105940002648844205D100224021254801F03CFB35
:1059500011E02448844205D1002210211E4801F0A4
:1059600033FB08E02048844205D100224FF4006157
:105970001E4801F029FB012003233A4601A90090AB
:10598000204603F062F906461248844205D10122FE
:10599000D103114801F018FB19E01048844205D1E9
:1059A000012240210E4801F00FFB10E00D48844217
:1059B00005D101221021084801F006FB07E00A4842
:1059C000844204D10122D102084801F0FDFA304698
:1059D000BDE8FC81A8060020000002405807002016
:1059E0000014024050060020000700200010024072
:1059F00073B504462848844206D100224FF4004182
:105A0000264801F0E1FA1AE02548844205D1002237
:105A10004021244801F0D8FA11E02348844205D1FE
:105A2000002210211D4801F0CFFA08E01F488442EF
:105A300005D100224FF400611D4801F0C5FA012391
:105A40001A4601A9204603F02DF805461248844263
:105A500005D10122D103114801F0B6FA19E010482E
:105A6000844205D1012240210E4801F0ADFA10E038
:105A70000D48844205D101221021084801F0A4FA02
:105A800007E00A48844204D10122D102084801F00B
:105A90009BFA28467CBD0000A806002000000240BA
:105AA0005807002000140240500600200007002084
:105AB00000100240F8B504460D461646202040EA84
:105AC00025208DF80000E8B28DF801008DF8026005
:105AD0002848844206D100224FF40041264801F0B4
:105AE00073FA1AE02548844205D100224021244857
:105AF00001F06AFA11E02348844205D10022102106
:105B00001D4801F061FA08E01F48844205D10022D7
:105B10004FF400611D4801F057FA01230322694642
:105B2000204602F0BFFF07461248844205D10122F9
:105B3000D103114801F048FA19E01048844205D118
:105B4000012240210E4801F03FFA10E00D48844246
:105B500005D101221021084801F036FA07E00A4871
:105B6000844204D10122D102084801F02DFA3846BE
:105B7000F8BD0000A80600200000024058070020E1
:105B800000140240500600200007002000100240D0
:105B900010B5024800F0DCFD10BD000070050020CB
:105BA00010B5024800F0D4FD10BD0000EC0A002042
:105BB00010B5024800F0CCFD10BD00001008002018
:105BC00010B5024800F0C4FD10BD00004C0B0020D1
:105BD00010B5024800F0BCFD10BD00002C0A0020EA
:105BE00010B5024800F0B4FD10BD00008C0A002082
:105BF00010B5024800F0ACFD10BD0000D00500203B
:105C000010B5024800F0A4FD10BD0000700800208F
:105C100010B5024800F09CFD10BD0000AC0B002048
:105C200010B5024800F094FD10BD0000B007002040
:105C300010B5024800F08CFD10BD0000D008002017
:105C400010B5024800F084FD10BD00000C0C0020CF
:105C50000146087810381823B0FBF3F20848805C3E
:105C6000C865032A05D908686FF30900001D886517
:105C700003E008686FF309008865886D70470000CD
:105C8000F0A50108014600208A6A8B69CBB932B1C0
:105C9000012A0DD0022A03D0032A10D10EE000BF42
:105CA000CB6A03F08073B3F1807F00D1012007E05D
:105CB000CB6AB3F1C07F00D1012001E000E000BF5A
:105CC00034E08B69B3F5005F1AD132B1012A07D0F5
:105CD000022A03D0032A11D10AE000BF01200EE0FE
:105CE000CB6A03F08073B3F1807F00D1012006E01E
:105CF000CB6AB3F1C07F00D1012000E000BF15E006
:105D000032B1012A05D0022A04D0032A0CD103E0C3
:105D100000BF00BF012008E0CB6A03F08073B3F13D
:105D2000807F00D1012000E000BF00BF704730B588
:105D30000468246824F4802405682C600468636087
:105D40008468402C04D10468A2600468E16003E028
:105D50000468A1600468E26030BD704710B54FF47C
:105D6000806001F009F84FF4805001F005F810BD93
:105D700010B5042001F000F810BD10B5102000F09F
:105D8000FBFF10BD10B5002201B909E0012901D1C6
:105D90000A0205E0022901D10A0201E04FF4407233
:105DA0000B2800D9001D114B1B6823F440730F4CC6
:105DB000236023461B681343236023461B6823F09C
:105DC000F803236023461B68F82494FAA4F4B4FA79
:105DD00084F400FA04F444F002042343034C2360E7
:105DE00023461B6843F48033236010BD103C0240FF
:105DF0001C48006800F40070B0B11A48006820F434
:105E000000701849086000BF0846006840F4006050
:105E100008600846006820F40060086000BF08467B
:105E2000006840F4007008600E48006800F480606C
:105E3000B0B10C48006820F480600A49086000BFD7
:105E40000846006840F4805008600846006820F466
:105E50008050086000BF0846006840F48060086019
:105E600070470000003C0240134A126822F440725E
:105E7000114B1A60032906D11A461268DB131A4324
:105E80000D4B1A600EE0012906D10B4A126842F050
:105E90000402094B1A6005E0074A126842F4004206
:105EA000054B1A60044A12684FF4803343EA00231A
:105EB0001A43014B1A607047103C0240074A1268AF
:105EC00022F44072054B1A601A4612681A601A468C
:105ED000126842F001021A6001707047103C0240E3
:105EE00010B50949096821F44071074C2160214629
:105EF000096841F4407121602146096841F00101BF
:105F000021600260436010BD103C0240084A1268E4
:105F100022F44072064B1A601A46126842F48072EC
:105F20001A601A46126842F001021A600180704736
:105F3000103C0240084A126822F44072064B1A6074
:105F40001A46126842F400721A601A46126842F049
:105F500001021A6001607047103C02402A48006844
:105F600000F0100040B12948C06940F010002749F6
:105F7000C8611020244908602348006800F0200010
:105F800040B12248C06940F008002049C861202083
:105F90001D4908601C48006800F0400040B11B48E3
:105FA000C06940F004001949C861402016490860E2
:105FB0001548006800F0800040B11448C06940F006
:105FC00002001249C86180200F4908600E4800682D
:105FD00000F4807048B10D48C06940F001000B49E1
:105FE000C8614FF48070084908600748006800F0F5
:105FF000020040B10548C06940F020000349C86173
:1060000002200149086070470C3C0240B4040020A3
:1060100070B50446002500201449C86100F0DAFF7D
:10602000054609E0601C38B124B100F0D3FF401BE5
:10603000A04201D9032070BD0D48006800F48030F3
:106040000028EFD10A48006800F0010010B10120DB
:10605000074908600648006800F4F97018B1FFF7B6
:106060007DFF0120E7E70020E5E70000B404002001
:106070000C3C02407047000038B5024600200090FA
:1060800000BF92F83C00012801D1022038BD012058
:1060900082F83C0000BF0868092816D91068C0685B
:1060A0000C780A3C04EB44050724AC40A043146878
:1060B000E0600C780A3C04EB44048868A040146853
:1060C000E46820431468E06013E0106800690C780D
:1060D00004EB44050724AC40A043146820610C780D
:1060E00004EB44048868A0401468246920431468C1
:1060F00020614868072817D21068406B0C79641E2D
:1061000004EB84051F24AC40A04314686063088836
:1061100080B20C79641E04EB8404A0401468646BA4
:1061200020431468606331E048680D2817D2106876
:10613000006B0C79E41F04EB84051F24AC40A043E2
:1061400014682063088880B20C79E41F04EB84048F
:10615000A0401468246B20431468206316E0106884
:10616000C06A0C790D3C04EB84051F24AC40A043AD
:106170001468E062088880B20C790D3C04EB84045A
:10618000A0401468E46A20431468E0621A4B1B4C78
:106190001068A04206D10868122803D1586840F45C
:1061A00080005860154C1068A0421ED1144C08683D
:1061B000A04202D00868112817D1586840F40000A6
:1061C00058600F4C0868A0420FD10E4800680E4C72
:1061D000B0FBF4F000EB80004000009002E000987B
:1061E000401E009000980028F9D100BF002082F8DE
:1061F0003C0000BF00BF49E70023014000200140F0
:10620000120000100000002040420F0010B50446AC
:10621000044800F00CF804490880024800F0B6F980
:1062200010BD0000D4040020300200207047014659
:106230000868C06C704770B50446002500262068C9
:106240000068C0F3400520684068C0F3401695B36D
:106250008EB3206C00F0100018B9206C40F4007070
:1062600020642068806800F04050E8B9A069D8B97F
:106270002068C06A00F4700020B12068806800F4D3
:10628000806088B92068406820F02000216848605C
:10629000206C20F480702064206C00F4805018B9C9
:1062A000206C40F0010020642046FFF7AFFF6FF044
:1062B00012002168086020680068C0F3800520682B
:1062C0004068C0F3C016E5B3DEB3206C00F01000E8
:1062D00018B9206C40F4005020642068806800F4F5
:1062E000401038BB2068806B00F4401020B120685B
:1062F000806800F48060E8B92068406800F480603D
:10630000C0B92068806800F0405098B9A06988B989
:106310002068406820F0800021684860206C20F4EC
:1063200080502064206C00F4807018B9206C40F01C
:10633000010020642046FFF79DFE6FF00C002168ED
:1063400008602068006800F0010520684068C0F31C
:10635000801685B17EB12068006800F0010050B160
:10636000206C40F480302064204600F053F86FF039
:1063700001002168086020680068C0F340152068AB
:106380004068C0F380667DB176B1606C40F0020079
:1063900060646FF02000216808602046FFF746FF28
:1063A0006FF020002168086070BD000070B50446E1
:1063B00000250CB9012070BD1549A06A884200D0A3
:1063C00000BF206C30B90020606484F83C00204697
:1063D00000F022F8206C00F0100088B9206C20F446
:1063E000885040F0020020642046FEF77BFF00202A
:1063F0006064206C20F0020040F00100206400E0A6
:10640000012500BF002084F83C0000BF2846D2E7E9
:106410000100000F7047000010B586B00446144913
:106420002068884221D100BF0020009011480068F8
:1064300040F480700F4908600846006800F48070DE
:10644000009000BF00BF04200190032002900020B4
:10645000039001A9084800F09DFC0022114612207B
:1064600001F004F9122001F0F4F806B010BD0000AC
:1064700000200140443802400000024008B50146B7
:106480000020009000BF91F83C00012801D10220BB
:1064900008BD012081F83C0000BF0868806800F05A
:1064A0000100A0B90868806840F001000B6898609E
:1064B00031480068314BB0FBF3F000EB4000009036
:1064C00002E00098401E009000980028F9D108686A
:1064D000806800F0010000284BD0086C40F2016396
:1064E000984340F4807008640868406800F4806055
:1064F00028B1086C20F4005040F480500864086C07
:1065000000F4805020B1486C20F00600486401E09F
:106510000020486400BF002081F83C0000BF184AFA
:106520006FF022000B68186008684068154B18432C
:106530000B685860506800F01F0058B90868806800
:1065400000F04050A8B90868806840F080400B68AF
:1065500098600EE00C4B086898420AD10868806881
:1065600000F0405028B90868806840F080400B680F
:10657000986000208CE700000000002040420F00DF
:10658000002301402000000400200140014600BF1C
:1065900091F83C00012801D102207047012081F8C8
:1065A0003C0000BF0868806820F001000A68906025
:1065B0000868806800F0010028B9086C20F4885051
:1065C00040F00100086400BF002081F83C0000BFDB
:1065D00000BFE2E730B503460C46002100BF187942
:1065E000012801D1022030BD0120187100BF022016
:1065F00058711868806840F001001D68A86000218B
:1066000004E054F821001D682860491C9142F8D329
:106610000120587100BF0020187100BF1868006881
:10662000E1E710B504460CB9012010BD607920B92E
:1066300000202071204600F007F802206071012040
:1066400060710020F1E7000008B50A4A0168914234
:106650000FD100BF002100910749096841F4805122
:10666000054A11601146096801F48051009100BF8C
:1066700000BF08BD003002403038024070B504460B
:10668000A56D00F0A7FC064694F83500022808D056
:106690008020606500BF002084F8340000BF012026
:1066A00070BD2068006820F016002168086020682E
:1066B000406920F0800021684861206C08B9A06C16
:1066C00028B12068006820F0080021680860206870
:1066D000006820F00100216808600FE000F07AFCFB
:1066E000801B05280AD92020606500BF002084F89F
:1066F000340000BF032084F83500D1E7206800682B
:1067000000F001000028E9D194F85C103F20884097
:10671000A86000BF002084F8340000BF012084F886
:1067200035000020BCE7014691F83500022803D06F
:106730008020486501207047052081F835000868F1
:10674000006820F001000A6810600020F3E70000F4
:10675000F8B50446002000908D4800684FF41651AB
:10676000B0FBF1F7A56D2E6894F85C100820884006
:10677000304098B12068006800F0040070B12068D3
:10678000006820F004002168086094F85C1008207C
:106790008840A860606D40F00100606594F85C106E
:1067A0007C488840304068B12068406900F0800033
:1067B00040B194F85C1077488840A860606D40F064
:1067C0000200606594F85C107248C01C884030403C
:1067D00070B12068006800F0020048B194F85C10C5
:1067E0006C48C01C8840A860606D40F00400606583
:1067F00094F85C1010208840304078B3206800681E
:1068000000F0080050B394F85C1010208840A86095
:106810002068006800F4802080B12068006800F4DF
:10682000002028B9206CC8B12046216C884715E0AB
:10683000A06C98B12046A16C88470FE020680068E2
:1068400000F4807028B92068006820F008002168F2
:106850000860206C10B12046216C884794F85C10C9
:10686000202088403040002865D02068006800F073
:10687000100000285FD094F85C1020208840A860A9
:1068800094F83500052828D12068006820F016000B
:10689000216808602068406920F080002168486114
:1068A000206C08B9A06C28B12068006820F00800AE
:1068B0002168086094F85C103F208840A86000BF01
:1068C000002084F8340000BF012084F83500206DDA
:1068D00010B12046216D8847F8BD2068006800F49B
:1068E000802080B12068006800F4002028B9606C26
:1068F00010B12046616C88471DE0E06BD8B120469E
:10690000E16B884717E02068006800F4807068B980
:106910002068006820F010002168086000BF002097
:1069200084F8340000BF012084F83500E06B10B11A
:106930002046E16B8847606D38B3606D00F0010060
:10694000F0B1052084F835002068006820F00100CF
:106950002168086000BF0098401C0090B84200D930
:1069600005E02068006800F001000028F3D100BFB6
:1069700000BF002084F8340000BF012084F83500F7
:10698000E06C10B12046E16C884700BFA4E700002E
:1069900000000020010080002DE9F04104460025A0
:1069A00000F018FB074614B90120BDE8F081606AC9
:1069B00000B100BF00BF002084F8340000BF0220F7
:1069C00084F835002068006820F001002168086024
:1069D0000AE000F0FFFAC01B052805D920206065F9
:1069E000032084F83500E0E72068006800F001002B
:1069F0000028EED12068056821480540D4E901014E
:106A00000843E16808432169084361690843A169B3
:106A10000843E1690843216A08430543606A042882
:106A200003D1D4E90B0108430543206805602068C1
:106A3000456925F00705606A0543606A04280DD1A1
:106A4000A06A0543E06A48B12046FFF71BF928B168
:106A500040206065012084F83500A6E72068456184
:106A60002046FFF7F5F8064694F85C103F20884072
:106A7000B06000206065012084F83500002094E7B4
:106A80003F8010F02DE9F04704460D4616461F469C
:106A90004FF00008D4F8589000BF94F83400012853
:106AA00002D10220BDE8F087012084F8340000BF45
:106AB00094F8350001282BD1022084F835000020FD
:106AC00060653B46324629462046FFF730F994F888
:106AD0005C103F208840C9F808002068006840F03A
:106AE0001600216808602068406940F08000216835
:106AF0004861206C28B12068006840F008002168D7
:106B000008602068006840F001002168086006E025
:106B100000BF002084F8340000BF4FF00208404658
:106B2000C0E700002DE9F04104460E46012700258C
:106B300000BF2648007E012802D10220BDE8F08176
:106B400001202249087600BF4CF25030FFF760FA6E
:106B50000746002F32D1401E30602068012810D136
:106B6000207C6168FFF780F94CF25030FFF750FA53
:106B700007461748006848F2040188431449086032
:106B80001AE0A56812E0217C2846FFF7FBF84CF2DA
:106B90005030FFF73DFA07460D48006820F0FA0034
:106BA0000B4908600FB1356005E06D1CD4E9021097
:106BB0000844A842E7D800BFFFF71AF900BF002039
:106BC0000249087600BF3846B8E70000B404002048
:106BD000103C02400348006840F000400149086052
:106BE00000207047103C02402DE9F04106460F4658
:106BF00014461D464FF0010800BF1F48007E0128C3
:106C000002D10220BDE8F08101201B49087600BFB7
:106C10004CF25030FFF7FCF98046B8F1000F23D159
:106C200026B9E1B23846FFF749F912E0012E04D146
:106C3000A1B23846FFF76AF90BE0022E04D12146D3
:106C40003846FFF777F904E022462B463846FFF72F
:106C500047F94CF25030FFF7DBF9804607480068EF
:106C600020F001000549086000BF002002490876B5
:106C700000BF4046C6E70000B4040020103C0240BC
:106C80000748006800F0004030B1064804490C395C
:106C900008600548086001E0012070470020FCE71B
:106CA000103C024023016745AB89EFCD10B5044687
:106CB000102C14D12848006800F0100000284AD099
:106CC0002548006800F02000002844D0002261021E
:106CD000224800F079F922480EF0A2FF3BE0042C94
:106CE00012D12048006900F00400A0B31D480069DB
:106CF00000F0080078B3002280211A4800F064F9FF
:106D000019480EF08DFF26E0B4F5806F0DD11748BD
:106D1000006800F48060F0B11448006800F400607E
:106D2000C8B113480EF07CFF15E0B4F5805F12D1B6
:106D30000948006800F4805068B10748006800F412
:106D4000006040B100224FF40061044800F03CF9BB
:106D500008480EF065FF10BD1014024000180240F4
:106D60005807002000200240A8060020100402401E
:106D7000000700205006002010B5044604480068B3
:106D8000204020B1024804602046FFF78FFF10BD6D
:106D9000143C0140F8B502460B46002500240020B3
:106DA0000021E6E0012606FA01F51E6806EA050460
:106DB000AC4273D15E68022E02D05E68122E13D1EF
:106DC000CF0802F1200656F827004E07F70E0F26CF
:106DD000BE40B0434F07FF0E1E69BE403043CF0890
:106DE00002F1200646F8270010684F000326BE4037
:106DF000B0431E7906F003064F00BE4030431060DA
:106E00005E68012E08D05E68022E05D05E68112EE5
:106E100002D05E68122E13D190684F000326BE4048
:106E2000B0434F00DE68BE4030439060506801269A
:106E30008E40B0431E79C6F300168E40304350603A
:106E4000D0684F000326BE40B0434F009E68BE404E
:106E50003043D0605E6806F08056B6F1805FA8D1FE
:106E600000BF00260096454E366846F48046434FE4
:106E70003E603E46366806F48046009600BF00BF7E
:106E80003F4E8F0856F827008E07370F0F26BE405B
:106E9000B0433C4EB24202D100262EE068E03A4EAA
:106EA000B24201D1012628E0384EB24201D1022679
:106EB00023E0374EB24201D103261EE0354EB242E6
:106EC00001D1042619E0344EB24201D1052614E066
:106ED000324EB24201D106260FE0314EB24201D10C
:106EE00007260AE02F4EB24201D1082605E02E4EB9
:106EF000B24201D1092600E00A268F073F0FBE40AB
:106F000030431F4E8F0846F82700284E3068A043B4
:106F10005E6806F48036B6F5803F00D12043234EEC
:106F20003060361D3068A0435E6806F40036B6F562
:106F3000003F00D120431D4E361D3060361D3068A5
:106F4000A0435E6806F48016B6F5801F00D120438A
:106F5000164E08363060361D3068A0435E6806F471
:106F60000016B6F5001F00D12043104E0C363060DD
:106F7000491C1029FFF416AFF8BD00004438024048
:106F800008380140000002400004024000080240AE
:106F9000000C0240001002400014024000180240A1
:106FA000001C02400020024000240240003C01403E
:106FB000024613690B400BB1012000E0002070472E
:106FC00042694A40426170470AB1816101E00B04A5
:106FD000836170470148006870470000040000208A
:106FE000704770472DE9F04704464FF00008C1464E
:106FF0000027BA462068456920684668314828401D
:1070000050B106F4807038B1206C40F0010020646B
:107010006FF480702168486105F4813050B106F446
:10702000807038B1206C40F0020020646FF4007072
:107030002168486105F4823078B306F4807060B34B
:1070400094F83E80B4F82A9094F83D70D4F830A0BB
:10705000B8F1200F0FD1B9F1000F0CD1212F06D0BC
:10706000292F04D0282F06D1BAF1210F03D12046B1
:1070700003F0AAF811E0206C40F00400206494F8BA
:107080003E00102805D12068006840F40070216897
:1070900008606FF480602168486105F4843050B165
:1070A00006F4807038B1206C40F0080020646FF462
:1070B000006021684861206C10B1204602F018FC85
:1070C000BDE8F087000101002DE9F0410646306877
:1070D0008769306844693068456896F83E80B8F141
:1070E000100F02D0B8F1400F58D104F0011030B1A8
:1070F00005F4007018B1304602F0A5FF13E04E48C9
:10710000204030B105F4007018B1304602F07DFE29
:1071100009E04948801F204028B105F4007010B1F3
:10712000304602F079FE45483840D8B142487830C0
:10713000204050B105F4806038B13F48001F204026
:1071400018B9304602F0BCFD74E03B48001F2040F7
:1071500000286FD005F4007000286BD0304602F094
:107160005FFD67E034483830204050B105F480605E
:1071700038B13148001F204018B9304602F0ECFC0D
:1071800058E02D48001F2040002853D005F400701F
:1071900000284FD0304602F063FC4BE02648801FA9
:1071A000204030B105F4007018B1304602F0F0FF15
:1071B00040E021480830204030B105F4007018B19B
:1071C000304603F053F835E01C483840C8B11A483F
:1071D0007830204050B105F4806038B11648001F67
:1071E000204018B9304602F0B0FF23E01248001FDB
:1071F0002040F8B105F40070E0B1304602F097FF8E
:1072000018E00D483830204050B105F4806038B1A6
:107210000948001F204018B9304602F064FF09E019
:107220000548001F204028B105F4007010B1304619
:1072300002F04AFFBDE8F0810800010004001000E0
:107240007047000070B50446002600250CB90120E7
:1072500070BD94F83D0028B9002084F83C00204619
:1072600000F0FAF8242084F83D002068006820F03F
:1072700001002168086000F013FD05463948B5FBA0
:10728000F0F62068466038496068884201D8701C72
:1072900007E04FF4967070434FF47A71B0FBF1F051
:1072A000401C216808623049606888420ED86068D6
:1072B0004000B5FBF0F0C0F30B00042801D204201D
:1072C0002DE060684000B5FBF0F028E0A06828B928
:1072D000606800EB4000B5FBF0F008E0606800EB90
:1072E000C00101EB0010B5FBF0F040F48040C0F3AA
:1072F0000B0008B9012012E0A06828B9606800EB13
:107300004000B5FBF0F008E0606800EBC00101EB65
:107310000010B5FBF0F040F4804040F400402168DC
:10732000C861D4E90701084321680860D4E9031063
:10733000084321688860D4E9050108432168C860D2
:107340002068006840F00100216808600020206487
:10735000202084F83D000020206384F83E0000BF18
:1073600076E7000040420F00A0860100704770479A
:107370007047000010B504460C480078022814D16C
:107380000A48406828B94FF4D86209490948FCF70F
:1073900029FF4FF4D8610748FCF73DFF002003495F
:1073A0004860C87208700881887210BD083B0120CF
:1073B000600300203833012038B5044619480078AE
:1073C00001282ED117484068B0F5205F22D9154812
:1073D0000089154909680844134908601348008862
:1073E000401C00B21149088000208DF800000846BA
:1073F00000788DF801000122022168460AF092FF10
:107400000A48B0F900200AA1124804F00DFB114807
:1074100007F05AF8002003494860C87208700881D4
:10742000887238BD083B01206801002064010020FB
:10743000656570726F6D3A7772697465206F6B2045
:107440007061636B65745F73796E203D2025640DF8
:107450000A000000150C012010B586B004463C4916
:107460002068884272D1C020019012200290002032
:107470000390032004900420059001A93548FFF7EC
:1074800089FC00BF002000903348006840F40010E1
:10749000314908600846006800F40010009000BF01
:1074A00000BF2E482E4908604005486000212C4846
:1074B0008160C1604FF4806101610021416181619F
:1074C000C1614FF44031016200214162FFF764FA6B
:1074D00018B1E52123A004F0A5FA00BF2048A0635D
:1074E000846300BF1D48A830254908604FF0007034
:1074F00048604021224881600021C1604FF48061D2
:107500000161002141618161C1614FF4403101623B
:1075100000214162FFF740FA18B1F72111A004F0F1
:1075200081FA00BF16486063846300BF00221146E1
:107530001F2000F09BF81F2000F08BF8002211465E
:10754000202000F093F8202000F083F806B010BD52
:1075500000540040000402404038024010600240E5
:10756000700500202E2E2F5372632F73746D3332EB
:10757000663478785F68616C5F6D73702E630000AD
:10758000D00500207047704702480068401C014940
:10759000086070470400002010B50D48006840F4F2
:1075A00000700B4908600846006840F4806008607D
:1075B0000846006840F480700860032000F094F8EA
:1075C000002000F007F800F019F8002010BD0000BE
:1075D000003C024070B50446074800684FF47A71D9
:1075E000B0FBF1F5284601F0E1FC00222146501ED7
:1075F00000F03CF8002070BD0000002010B5032012
:1076000000F072F8002211466FF00B0000F02EF827
:10761000002211466FF00A0000F028F800221146FF
:107620006FF0090000F022F800221146501F00F010
:107630001DF800221146101F00F018F80022114614
:10764000901E00F013F800221146501E00F00EF8B4
:1076500010BD00BF00F01F020121914042099200BD
:1076600002F1E022C2F8001100BF70472DE9F05F7F
:1076700080460D461646002703F06CFC0746394647
:107680002A46334601F00700C0F1070ABAF1040F99
:1076900002D94FF0040A01E0C0F1070AD14600F117
:1076A000040ABAF1070F02D24FF0000A01E0A0F17C
:1076B000030AD4464FF0010A0AFA09FAAAF1010AAC
:1076C0000AEA020A0AFA0CFA4FF0010B0BFA0CFB59
:1076D000ABF1010B0BEA030B4AEA0B0421464046CF
:1076E00003F040FCBDE8F09F00BF00F00702064B2E
:1076F00019684FF6FF031940044B0B4343EA02217C
:10770000014B196000BF70470CED00E00000FA0566
:1077100000BF00BF00BF00BF00BFBFF34F8F00BF5F
:1077200000BF00BF0948006800F4E0600849084352
:10773000001D0649086000BF00BF00BFBFF34F8FA8
:1077400000BF00BF00BF00BF00BFFDE70CED00E0C1
:107750000000FA05F8B5044600250026207800F060
:10776000010020B9207800F00200022866D1002034
:10777000CE498866FFF72EFC054606E0FFF72AFC97
:10778000401B022801D90320F8BDC9480068C0F396
:10779000C0600028F2D1207800F0010098B147F6CF
:1077A000C07191FAA1F1B1FA81F1606888404FF09F
:1077B000E04292FAA2F2B2FA82F2A1689140084342
:1077C000BB4984310860207800F00200022821D1F2
:1077D000B7488430006800F0E0404FF0E04191FA93
:1077E000A1F1B1FA81F120FA01F660688101207BF4
:1077F00041EA006040EA0670AD4984310860AC4857
:107800008C30006820F01F00E169491E0843A84938
:107810008C3108600120A5498866FFF7DBFB05462F
:1078200006E0FFF7D7FB401B022801D90320ABE796
:107830009F480068C0F3C0600028F2D0207800F0B4
:107840000400042804D0207800F0080008287DD126
:10785000002096490867FFF7BDFB054606E0FFF7E5
:10786000B9FB401B022801D903208DE7904800682E
:10787000C0F340700028F2D1207800F00400042802
:1078800034D18B488830006800F0E0404FF0E04190
:1078900091FAA1F1B1FA81F120FA01F647F6C0712F
:1078A00091FAA1F1B1FA81F1206988404FF070623C
:1078B00092FAA2F2B2FA82F26169914008434FF063
:1078C000E04191FAA1F1B1FA81F106FA01F1084320
:1078D000774988310860081D006820F4F851206A53
:1078E000401E41EA002072498C310860207800F087
:1078F0000800082834D16E488830006800F07060B5
:107900004FF0706191FAA1F1B1FA81F120FA01F61C
:1079100047F6C07191FAA1F1B1FA81F1206988406E
:107920004FF0706191FAA1F1B1FA81F106FA01F11B
:1079300008434FF0E04292FAA2F2B2FA82F2A16951
:10794000914008435A498831086000E01CE0081D56
:10795000006820F44030616A084355498C31086062
:10796000012052490867FFF735FB054606E0FFF79F
:1079700031FB401B022801D9032005E74C48006871
:10798000C0F340700028F2D0207800F020002028BA
:107990007ED100BF0020009045484030006840F094
:1079A00080504349403108600846006800F080502C
:1079B000009000BF00BF3F48006840F480703D4920
:1079C0000860FFF707FB054606E0FFF703FB401BD7
:1079D000022801D90320D7E63648006800F48070F9
:1079E0000028F2D032487030006800F440764EB380
:1079F000208D00F44070B04224D02D4870300068D3
:107A000020F4407601202C490860002008602848B6
:107A100070300660006800F0010098B1FFF7DAFAF4
:107A2000054608E0FFF7D6FA401B41F2883188424C
:107A300001D90320A8E61E4870300068C0F340005A
:107A40000028EFD000BF208D00F44070B0F5407FDB
:107A50000CD117480830006820F4F810174AA16AC2
:107A60001140084312490831086007E01048083007
:107A7000006820F4F8100E49083108600C48703096
:107A80000068218DC1F30B0108430949703100E002
:107A900001E0086000BF207800F01000102803D13A
:107AA00094F82C000649086000206DE6000047426B
:107AB0000038024000700040400E4742FFFCFF0FBC
:107AC000E011474270B504460D4600266D48006837
:107AD00000F00F00A84209D26A490D7008460068FC
:107AE00000F00F00A84201D0012070BD207800F006
:107AF0000200022807D16448006820F0F000A16865
:107B0000084361490860207800F00100002877D020
:107B10006068012807D15C4808380068C0F340401D
:107B2000B8B90120E1E76068022802D06068032844
:107B300007D1554808380068C0F3406048B90120B3
:107B4000D3E7514808380068C0F3400008B9012065
:107B5000CBE74D48006820F00300616808434A49BC
:107B60000860FFF737FA06466068012810D108E080
:107B7000FFF730FA801B41F28831884201D9032097
:107B8000B3E74148006800F00C000428F0D137E06A
:107B90006068022810D108E0FFF71CFA801B41F250
:107BA0008831884201D903209FE73748006800F0F8
:107BB0000C000828F0D123E06068032810D108E009
:107BC000FFF708FA801B41F28831884201D903206F
:107BD0008BE72D48006800F00C000C28F0D10FE076
:107BE00008E0FFF7F7F9801B41F28831884201D99C
:107BF00003207AE72448006800F00C000028F0D148
:107C00002048006800F00F00A84209D91D490D70F6
:107C10000846006800F00F00A84201D0012064E788
:107C2000207800F00400042807D11748006820F4E9
:107C3000E050E168084314490860207800F008002B
:107C4000082808D11048006820F46040216940EA03
:107C5000C1000D49086000F04FF80B49096801F0B8
:107C6000F001F02292FAA2F2B2FA82F2D140074A6F
:107C7000515CC840064908600020FFF7ABFC0020BB
:107C800033E70000003C024008380240D8A5010854
:107C9000000000200148006870470000000000203C
:107CA00000B5FFF7F7FF0749096801F4E0514FF409
:107CB000E05292FAA2F2B2FA82F2D140024A515C48
:107CC000C84000BD08380240E8A5010800B5FFF72C
:107CD000E1FF0749096801F460414FF4604292FAFC
:107CE000A2F2B2FA82F2D140024A515CC84000BD11
:107CF00008380240E8A5010870B5002100220023E1
:107D00000020274C246804F00C0424B1042C04D077
:107D1000082C41D103E0234840E023483EE0204CBA
:107D2000241F246804F03F011D4C241F246804F420
:107D3000800484B11C4CB4FBF1F5194C241F246859
:107D400047F6C076344096FAA6F6B6FA86F6F440C0
:107D500005FB04F20FE0134CB4FBF1F5104C241FAB
:107D6000246847F6C076344096FAA6F6B6FA86F648
:107D7000F44005FB04F20A4C241F246804F4403448
:107D80004FF4403595FAA5F5B5FA85F5EC40641C3D
:107D90006300B2FBF3F001E0024800BF00BF70BD1A
:107DA000083802400024F40080BA8C0138B504463B
:107DB0000025207800F00100002874D0F748006802
:107DC00000F00C0004280DD0F448006800F00C000E
:107DD000082813D1F148001F006800F48000B0F5B6
:107DE000800F0BD1ED4808380068C0F340400028F0
:107DF00059D06068002856D1012038BD00BF6068A6
:107E0000B0F5803F08D1E5480838006840F480307C
:107E1000E249083908601EE06068B0F5A02F0DD176
:107E2000DE480838006840F48020DC4908390860E2
:107E30000846006840F4803008600CE0D7480838F5
:107E4000006820F48030D549083908600846006889
:107E500020F48020086000BF606890B1FFF7BAF896
:107E6000054606E0FFF7B6F8401B642801D9032059
:107E7000C3E7CA4808380068C0F340400028F1D082
:107E800011E0FFF7A7F8054606E0FFF7A3F8401B4F
:107E9000642801D90320B0E7C04808380068C0F35F
:107EA00040400028F1D1207800F00200022869D17A
:107EB000BA48006800F00C0058B1B848006800F0FB
:107EC0000C00082821D1B548001F006800F480008C
:107ED000D8B9B24808380068C0F3400020B1E06863
:107EE000012801D0012088E7AC480838006820F05C
:107EF000F800F82292FAA2F2B2FA82F221699140D5
:107F00000843A649083908603CE0E06828B301202E
:107F1000A3490860FFF75EF8054606E0FFF75AF848
:107F2000401B022801D9032067E79C4808380068F5
:107F3000C0F340000028F1D098480838006820F0CD
:107F4000F800F82292FAA2F2B2FA82F22169914084
:107F5000084392490839086014E0002090490860FD
:107F6000FFF738F8054606E0FFF734F8401B022813
:107F700001D9032041E7894808380068C0F3400070
:107F80000028F1D1207800F0080008282CD1606981
:107F9000A8B1012083490860FFF71CF8054606E0F8
:107FA000FFF718F8401B022801D9032025E77B487A
:107FB0006C300068C0F340000028F1D014E00020CD
:107FC00078490860FFF706F8054606E0FFF702F873
:107FD000401B022801D903200FE770486C3000686D
:107FE000C0F340000028F1D1207800F004000428FC
:107FF0007FD100BF0020009068483830006840F012
:1080000080506649383108600846006800F08050AA
:10801000009000BF00BF6448006840F4807062496F
:108020000860FEF7D7FF054606E0FEF7D3FF401BCA
:10803000022801D90320E0E65B48006800F4807064
:108040000028F2D000BFA068012808D1534868304A
:10805000006840F001005149683108601DE0A068E7
:1080600005280DD14D486830006840F004004B49A8
:10807000683108600846006840F0010008600CE0C4
:1080800046486830006820F00100444968310860C3
:108090000846006820F00400086000BFA068A0B196
:1080A000FEF798FF054608E0FEF794FF401B41F2FB
:1080B0008831884201D903209FE63848683000683B
:1080C000C0F340000028EFD013E0FEF783FF054621
:1080D00008E0FEF77FFF401B41F28831884201D95A
:1080E00003208AE62D4868300068C0F3400000286D
:1080F000EFD1A069F0B32948006800F00C0008280F
:1081000071D0A069022858D1002025490866FEF7E1
:1081100061FF054606E0FEF75DFF401B022801D91E
:1081200003206AE61D4808380068C0F34060002854
:10813000F1D1D4E90701084347F6C07292FAA2F2DE
:10814000B2FA82F2616A914008430122A16AC2EB4D
:1081500051014FF4403292FAA2F2B2FA82F2914007
:1081600008434FF0706292FAA2F2B2FA82F2E16A28
:10817000914000E039E008430849091F08600120E8
:1081800007490866FEF726FF05460FE0FEF722FFC7
:10819000401B02280AD903202FE6000008380240BD
:1081A00000004742800E47420070004010480068BF
:1081B000C0F340600028E9D017E000200D490866B0
:1081C000FEF708FF054606E0FEF704FF401B022805
:1081D00001D9032011E606480068C0F3406000287A
:1081E000F2D102E0FFE7012007E6002005E60000EB
:1081F000003802400000474202460023106800F1A8
:10820000500303EB81031868704710B5002304681E
:1082100004F1500303EB81031A6010BD70B50546ED
:108220000B4616460024286840680E4900EA0104FF
:10823000200CD870C4F30420587004F03F009870EC
:10824000C4F3423018705EB9D87802F0A0FED8703E
:10825000587802F09CFE5870987802F098FE98705A
:10826000002070BD3FFFFF0070B504460B46164668
:1082700000252068806A586020680069C0F30E00FD
:108280009860206800680F4900EA0105C5F30540C1
:108290001870C5F30620587005F07F00987005F43B
:1082A0008000000CD8705EB9187802F070FE18706B
:1082B000587802F06CFE5870987802F068FE98705A
:1082C000002070BD7F7F7F0010B504460CB90120EF
:1082D00010BD607F20B900202077204600F04EF8C6
:1082E0000220607700BFCA202168486253202168BD
:1082F000486200BF204602F062FE40B100BFFF208E
:108300002168486200BF042060770120E0E7206810
:1083100080681949084021688860216960680843BD
:108320006169084321688968084321688860216879
:10833000E068086120680169208941EA00402168FD
:1083400008612068C06820F080002168C86020684B
:10835000006C20F48020216808642068006CA1690A
:1083600008432168086400BFFF202168486200BFFD
:10837000012060770020ABE7BFFF8FFF034A016851
:10838000914202D10121024A116070470028004049
:108390003C0E47422DE9F04104460D4616460027A3
:1083A00000BF207F012802D10220BDE8F08101201A
:1083B000207700BF022060774EB9687800F0100087
:1083C000102804D1687800F0EF000A30687086B990
:1083D000E87802F0E7FD0304687802F0E3FD43EA81
:1083E0000023A87802F0DEFD0343287843EA4037F3
:1083F00011E0687802F0CBFD0746A87802F0C7FDCF
:108400000746E8780004697840EA0120A978084323
:10841000297840EA413700BFCA20216848625320CA
:108420002168486200BF204602F0C9FD60B100BF6C
:10843000FF202168486200BF0420607700BF002051
:10844000207700BF0120B0E7164838402168486017
:108450002068C06820F080002168C86020688068BB
:1084600000F0200080B9204600F0B8F860B100BFED
:10847000FF202168486200BF0420607700BF002011
:10848000207700BF012090E700BFFF2021684862ED
:1084900000BF0120607700BF0020207700BF00BF31
:1084A00083E700003FFFFF002DE9F04104460D4641
:1084B0001646002700BF207F012802D10220BDE818
:1084C000F0810120207700BF02206077CEB92068BC
:1084D000806800F0400000B102E00020E87000BFBA
:1084E000287802F05FFD0304687802F05BFD43EA40
:1084F0000023A87802F056FD0343E87843EA0047DA
:1085000016E02068806800F0400020B1287802F072
:108510003EFD074602E00020E87000BF2878000416
:10852000697840EA0120A9780843E97840EA0147E0
:1085300000BFCA202168486253202168486200BFFA
:10854000204602F03CFD60B100BFFF202168486278
:1085500000BF0420607700BF0020207700BF01200B
:10856000ADE71D483840216808602068806820F425
:10857000802021688860D5E9030108432168896863
:108580000843216888602068C06820F08000216866
:10859000C8602068806800F0200080B9204600F0A4
:1085A0001DF860B100BFFF202168486200BF0420B1
:1085B000607700BF0020207700BF01207FE700BF69
:1085C000FF202168486200BF0120607700BF0020C3
:1085D000207700BF00BF72E77F7F7F0070B5044641
:1085E00000252068C06820F0A0002168C860FEF760
:1085F000F1FC054607E0FEF7EDFC401BB0F57A7F85
:1086000001D9032070BD2068C06800F02000002858
:10861000F1D00020F6E710B504460CB9012010BDDA
:10862000606A00B900BF0021A16294F8510028B926
:10863000002084F85000204600F034F8022084F82E
:1086400051002068006820F0400021680860D4E9EB
:1086500001010843E168084321690843616908434F
:10866000218B01F400710843E1690843216A084342
:10867000A16A0843216808600421A06901EA10404A
:10868000616A0843216848602068C06920F400607E
:108690002168C86100206065012084F85100002035
:1086A000BDE7000010B586B004468D4920688842B9
:1086B00040D100BF002000908A48006840F48050FC
:1086C000884908600846006800F48050009000BFA8
:1086D00000BFE020019002200290002003900320C0
:1086E00004900520059001A97F48FEF753FB7F48C1
:1086F0007F4908604FF0C060486000217C4881607D
:10870000C1604FF480610161002141618161C161FB
:108710004FF48031016200214162FEF73DF920B142
:1087200040F26F1173A003F07DF900BF7048E06460
:108730008463D3E076492068884242D100BF00209C
:1087400000906848001F006840F400406549091F18
:1087500008600846006800F40040009000BF00BFB9
:108760004FF4E0500190022002900020039003207B
:1087700004900620059001A96648FEF70BFB6648A9
:108780006649086000204860002164488160C1603B
:108790004FF480610161002141618161C1614FF449
:1087A0008031016200214162FEF7F6F820B14FF4FA
:1087B000CD7150A003F036F900BF5848E0648463DF
:1087C0008CE057492068884241D100BF00200090CA
:1087D0004448006840F40050424908600846006878
:1087E00000F40050009000BF00BF4FF4E040019043
:1087F00002200290002003900320049005200590A1
:1088000001A94848FEF7C6FA38483038464908609A
:10881000C0054860002144488160C1604FF4806118
:108820000161002141618161C1614FF480310162C8
:1088300000214162FEF7B0F820B140F2C5112DA031
:1088400003F0F0F800BF3848E064846346E037493D
:108850002068884242D100BF002000902148006873
:1088600040F480101F4908600846006800F480103A
:10887000009000BF00BF4FF4607001900220029092
:1088800000200390032004900520059001A92848AA
:10889000FEF780FA15481830264908604FF08060CE
:1088A0004860002123488160C1604FF4806101610C
:1088B000002141618161C1614FF480310162002179
:1088C0004162FEF769F820B14FF4F87109A003F096
:1088D000A9F800BF1748E064846300BF06B010BD6C
:1088E0000030014044380240000002404064024031
:1088F000B00700202E2E2F5372632F73746D333206
:10890000663478785F68616C5F6D73702E63000009
:10891000003C004000080240406002401008002077
:108920000034014000100240700800200050014057
:1089300000140240D00800202DE9F84304460D46FB
:1089400017461E464FF00008C1466068B0F5827FAA
:108950000DD1A06858B9042084F851003B462A463E
:1089600029462046009600F070F9BDE8F88300BF64
:1089700094F85000012801D10220F6E7012084F884
:10898000500000BFFEF726FB804694F851000128F6
:1089900002D04FF002097BE005B117B94FF0010991
:1089A00076E0042084F8510000206065A563A78765
:1089B000E7872063A086E08620646064A068B0F545
:1089C000004F05D12068006820F4804021680860CD
:1089D0002068006800F04000402805D0206800684A
:1089E00040F0400021680860E068E8B918E02068BD
:1089F000806800F0010038B12068007B28706D1C91
:108A0000E08F401EE0870BE03EB1701C40B1FEF7E6
:108A1000E1FAA0EB0800B04202D34FF0030937E0BF
:108A2000E08F0028E3D11CE018E02068806800F0A7
:108A3000010038B12068C0682880AD1CE08F401E5E
:108A4000E0870BE03EB1701C40B1FEF7C3FAA0EB2B
:108A50000800B04202D34FF0030919E0E08F00286C
:108A6000E3D16068B0F5827F0DD1A068B0F5004F0A
:108A700003D0A068B0F5806F05D12068006820F0B1
:108A8000400021680860606D08B14FF0010900BF27
:108A9000012084F8510000BF002084F8500000BF7E
:108AA000484662E72DE9F84304460D4617461E4640
:108AB0004FF00008C14600BF94F85000012802D1D1
:108AC0000220BDE8F883012084F8500000BFFEF7C3
:108AD00081FA804694F85100012802D04FF0020933
:108AE000A9E005B117B94FF00109A4E0032084F80B
:108AF0005100002060652563A786E786A063A087F4
:108B0000E08760642064A068B0F5004F05D120685C
:108B1000006840F48040216808602068006800F028
:108B20004000402805D02068006840F040002168DF
:108B30000860E068B0F5006F2AD1606810B1E08E7F
:108B4000012806D128882168C860AD1CE08E401E2F
:108B5000E08619E02068806800F00200022807D152
:108B600028882168C860AD1CE08E401EE0860BE0BE
:108B70003EB1701C40B1FEF72DFAA0EB0800B042E8
:108B800002D34FF0030956E0E08E0028E2D129E03D
:108B9000606810B1E08E012806D12878216808733A
:108BA0006D1CE08E401EE08619E02068806800F0B1
:108BB0000200022807D12878216808736D1CE08E16
:108BC000401EE0860BE03EB1701C40B1FEF702FA99
:108BD000A0EB0800B04202D34FF003092BE0E08E77
:108BE0000028E2D13346012202212046CDF8008040
:108BF00002F018FA10B14FF003091CE0424631466A
:108C0000204602F0FBF920B14FF0010920206065F9
:108C100011E0A06850B900BF002000902068C06833
:108C2000009020688068009000BF00BF606D08B1B0
:108C30004FF0010900BF012084F8510000BF00205F
:108C400084F8500000BF48463BE72DE9FE4F04463C
:108C50000D4616461F46DDF830804FF0000A002012
:108C6000029081464FF0010B019000BF94F8500034
:108C7000012802D10220BDE8FE8F012084F85000B7
:108C800000BFFEF7A7F9814694F851A060680290F2
:108C9000BAF1010F0BD00298B0F5827F04D1A06821
:108CA00010B9BAF1040F02D002200190D2E00DB148
:108CB00006B117B901200190CCE094F851000128C9
:108CC00002D1052084F8510000206065A663E78783
:108CD000A7872563E786A78620646064206800680C
:108CE00000F04000402805D02068006840F04000B7
:108CF00021680860E068B0F5006F43D1606810B18A
:108D0000E08E012806D128882168C860AD1CE08E5D
:108D1000401EE0862FE0BBF1000F10D0E08E70B156
:108D20002068806800F00200022808D128882168A5
:108D3000C860AD1CE08E401EE0864FF0000BE08F57
:108D400068B12068806800F0010040B12068C06808
:108D50003080B61CE08F401EE0874FF0010B08F119
:108D6000010040B1FEF736F9A0EB0900404502D3FF
:108D7000032001906EE0E08E0028CCD1E08F002827
:108D8000C9D142E0606810B1E08E012806D1287890
:108D9000216808736D1CE08E401EE0862FE0BBF159
:108DA000000F10D0E08E70B12068806800F00200E3
:108DB000022808D115F8010B21680873E08E401EC7
:108DC000E0864FF0000BE08F68B12068806800F00B
:108DD000010040B12068C06806F8010BE08F401E1A
:108DE000E0874FF0010B08F1010040B1FEF7F2F807
:108DF000A0EB0900404502D3032001902AE0E08E59
:108E00000028CCD1E08F0028C9D14346012202219D
:108E10002046CDF8009002F005F910B10320019032
:108E200018E04A464146204602F0E8F820B1012009
:108E30000190202060650DE0A06850B900BF0020BF
:108E400000902068C068009020688068009000BF93
:108E500000BF00BF012084F8510000BF002084F84B
:108E6000500000BF019806E7042808D14FF0E02128
:108E7000096941F004014FF0E022116107E04FF071
:108E8000E021096921F004014FF0E02211617047EF
:108E900010B540480068401C3E490860084600681C
:108EA0003D490968884201D1FEF732FC3B4890F900
:108EB0000000002805DD3948807A401C40B237495F
:108EC000887234480088C0F3080048B934480078F4
:108ED000401C3349087033480078401C3149087001
:108EE00000BF314800680028FBD12A48406800B91B
:108EF00010BD2848007800F03F0008B90DF08AFD49
:108F00002448007800F03F00012801D10BF02CFF2D
:108F100006F0A6FF1F490968B1FBF0F200FB121032
:108F2000212801D10DF0E6FF06F09AFF19490968E2
:108F3000B1FBF0F200FB1210022802D100200DF06C
:108F400059FC06F08DFF13490968B1FBF0F200FBF4
:108F50001210202802D101200DF04CFC06F080FFF9
:108F60000C490968B1FBF0F200FB1210422802D153
:108F700002200DF03FFC06F073FF06490968B1FBC3
:108F8000F0F200FB1210602802D103200DF032FC39
:108F900000BFADE7CC0200202C020020083B0120DE
:108FA00090010020580200204803002070B50446BC
:108FB0002546681EB0F1807F01D301200FE0681EB6
:108FC0004FF0E02148610F214FF0FF3001F0CAFF60
:108FD00000204FF0E021886107200861002070BD6B
:108FE00010B5FFF755FF10BD024600BF92F83800DC
:108FF000012801D102207047012082F8380000BF0B
:10900000022082F839001068406820F07000136870
:109010005860106840680B681843136858601068FF
:10902000806820F0800013689860106880684B6842
:10903000184313689860012082F8390000BF0020AF
:1090400082F8380000BF00BFD5E710B504460CB960
:10905000012010BD94F8390028B9002084F83800A8
:10906000204600F00DF8022084F83900211D206808
:1090700002F0E6F8012084F839000020E9E700005A
:1090800008B50168B1F1804F0FD100BF00210091F8
:109090000649096841F00101044A11601146096856
:1090A00001F00101009100BF00BF08BD403802403F
:1090B0000146022081F839000868006840F001008C
:1090C0000A681060012081F83900002070472DE9FE
:1090D000F04104460D46002600BF94F838000128F0
:1090E00002D10220BDE8F081012084F8380000BFE1
:1090F000022084F839002068866826F0770626F476
:109100007F4620688660286850283BD00CDC2028E9
:1091100060D004DC002853D0102865D155E03028F9
:109120005DD0402860D141E0602835D070280DD056
:10913000B0F5805F03D0B0F5005F55D115E0206831
:10914000806820F00700216888604EE0D5E90213AE
:109150006A68206802F0E6F82068866826F07706DC
:1091600046F07706206886603FE0D5E902136A681A
:10917000206802F0D7F82068806840F480402168B9
:10918000886032E0EA686968206802F0E1F85021FE
:10919000206802F0D3F828E0EA686968206802F0E5
:1091A000ECF86021206802F0C9F81EE0EA686968FE
:1091B000206802F0CDF84021206802F0BFF814E0EA
:1091C0000021206802F0BAF80FE01021206802F0B8
:1091D000B5F80AE02021206802F0B0F805E030215F
:1091E000206802F0ABF800E000BF00BF012084F867
:1091F000390000BF002084F8380000BF00BF71E7CD
:10920000704700002DE9F047044620680568206893
:10921000C668206847694FF00008C14605F00F088E
:10922000B8F1000F0AD105F0200038B106F0200097
:1092300020B1204602F05FF9BDE8F087B8F1000FD9
:109240006DD007F0010018B906F49070002866D0C0
:1092500005F0010030B106F4807018B1E06B40F009
:109260000100E06305F0040030B107F0010018B11F
:10927000E06B40F00200E06305F0020030B107F05F
:10928000010018B1E06B40F00400E06305F0080055
:1092900030B107F0010018B1E06B40F00800E06366
:1092A000E06B68B305F0200028B106F0200010B193
:1092B000204602F020F920684069C0F38019E06B75
:1092C00000F0080010B9B9F1000F22D0204602F0DA
:1092D000E8F82068406900F04000B0B120684069BB
:1092E00020F0400021684861606B50B11748616B05
:1092F0000865606BFDF717FA10B1606B016D884768
:109300000CE02046FFF77CFF08E02046FFF778FFDF
:1093100004E02046FFF774FF0020E0638CE705F0CF
:10932000800030B106F0800018B1204602F0E4FA67
:1093300082E705F0400030B106F0400018B1204649
:1093400002F0BFF878E700BF76E70000A7B3000897
:1093500010B504460CB9012010BDA06900B100E0B1
:1093600000BF94F8390028B9002084F8380020465E
:1093700000F028F8242084F839002068C06820F420
:1093800000502168C860204602F002F92068006998
:1093900020F49040216808612068406920F02A008C
:1093A000216848612068C06840F400502168C860A6
:1093B0000020E063202084F8390084F83A0000207F
:1093C000CAE7000010B586B00446AF49206888425D
:1093D0006ED100BF00200090AC48006840F400301F
:1093E000AA4908600846006800F40030009000BFF9
:1093F00000BF602001900220029001200390032012
:1094000004900720059001A9A148FDF7C3FCA148DD
:10941000A14908604FF00060486000219E488160CB
:10942000C1604FF480610161002141618161C161CE
:109430004FF48031016200214162FDF7ADFA20B1A5
:1094400040F29D2195A002F0EDFA00BF92486063C2
:10945000846300BF8F481830974908604FF0006060
:1094600048604021944881600021C1604FF48061D0
:109470000161002141618161C1614FF4803101626C
:1094800000214162FDF788FA20B140F2AF2183A0AC
:1094900002F0C8FA00BF88482063846300BF00223E
:1094A00001212620FEF7E2F82620FEF7D2F8E9E0B7
:1094B00082492068884271D100BF00200090734823
:1094C000006840F48020714908600846006800F494
:1094D0008020009000BF00BF4FF440700190022038
:1094E000029001200390032004900720059001A919
:1094F0006748FDF74FFC67486038714908604FF0D6
:109500000060486000216E488160C1604FF4806156
:109510000161002141618161C1614FF480310162CB
:1095200000214162FDF738FA20B14FF437715BA09A
:1095300002F078FA00BF62486063846300BF554858
:109540003038604908604FF00060486040215D4855
:1095500081600021C1604FF480610161002141619F
:109560008161C1614FF48031016200214162FDF7E8
:1095700013FA20B140F2EE2148A002F053FA00BFE6
:1095800050482063846300BF002201212720FEF79A
:109590006DF82720FEF75DF874E0FFE74A49206880
:1095A00088426FD100BF002000903848001D00683D
:1095B00040F020003549091D08600846006800F0A9
:1095C0002000009000BF00BF4FF4844001900220B3
:1095D000029001200390032004900820059001A927
:1095E0003A48FDF7D7FB3A483A4908608005486099
:1095F000002138488160C1604FF480610161002121
:1096000041618161C1614FF4803101620021416299
:10961000FDF7C2F920B140F21B3120A002F002FA9E
:1096200000BF2C486063846300BF294878302A4912
:1096300008604FF020604860402127488160002189
:10964000C1604FF480610161002141618161C161AC
:109650004FF48031016200214162FDF79DF920B194
:1096600040F22D310DA002F0DDF900BF1A48206351
:10967000846300BF002201214720FDF7F7FF472048
:10968000FDF7E7FF06B010BD00440040403802403F
:10969000000C0240886002402C0A00202E2E2F531E
:1096A00072632F73746D3332663478785F68616CDF
:1096B0005F6D73702E6300008C0A0020004800402C
:1096C000EC0A00204C0B002000140140001802405E
:1096D00028640240AC0B00200C0C002077B581B050
:1096E0000446154694F83A00202850D1029800B15B
:1096F00015B9012004B070BD00BF94F838000128EE
:1097000001D10220F6E7012084F8380000BF02985A
:10971000A062A5850020E063222084F83A001D485D
:10972000616BC8631C48616B08641C48616BC8644A
:109730000020616B086502AE32682368191D2B4654
:10974000606BFDF79FF900BF002000902068006863
:10975000009020684068009000BF00BF00BF00205C
:1097600084F8380000BF2068C06840F48070216829
:10977000C8602068406940F00100216848612068A5
:10978000406940F04000216848610020B2E70220B3
:10979000B0E700000BB4000851B40008BBB30008E8
:1097A00070477047F7B50446154694F839002028ED
:1097B0003DD1019800B10DB90120FEBD00BF94F864
:1097C0003800012801D10220F7E7012084F8380091
:1097D00000BF01982062A584E5840020E063212079
:1097E00084F839001348216BC8631348216B08645F
:1097F0001248216BC8640020216B086501AE236804
:109800001A1D31682B46206BFDF73CF96FF04000C4
:109810002168086000BF002084F8380000BF20687D
:10982000406940F08000216848610020C5E70220BF
:10983000C3E700005FB4000895B40008BBB300089C
:1098400010B504460448844204D101224021034853
:10985000FDF7BAFB10BD0000AC0900200018024063
:10986000704700BFFEE7000010B50248FDF7BAFBE5
:1098700010BD00001C05002010B50248FDF724FCB7
:1098800010BD00001C05002070B50546AC6B2068BB
:10989000006820F480602168086000206085616BAA
:1098A0000865A16B086594F83D00602810D1202060
:1098B00084F83D00002084F83E00206420680068A1
:1098C00020F00100216808602046FDF789FB0EE0CA
:1098D000202084F83D00002084F83E0020680068C5
:1098E00020F00100216808602046FDF7A9FC70BD4A
:1098F00070B5044694F83D50292D01D02A2D05D18C
:1099000000202063282084F83D0011E094F83D00F9
:10991000602809D02068406800F40060B0F5006F4E
:1099200002D0202084F83D000020206384F83E000F
:109930002068006820F400602168086020684068A2
:1099400000F40060B0F5006F40D12068406820F45A
:10995000006021684860606B90F83500012814D0E1
:109960003D48616B0865606BFCF7DDFE00285BD04D
:109970002068006820F0010021680860202084F839
:109980003D00606B016D88474EE03348A16B086570
:10999000A06BFCF7C8FE002846D020684069C0F3E1
:1099A000801030B120680069C1B2626A501C6062E8
:1099B00011702068006820F00100216808602020F4
:1099C00084F83D00A06B016D88472DE094F83D00C0
:1099D00060281AD1202084F83D00002020642068EF
:1099E0004069C0F3801030B120680069C1B2626A7A
:1099F000501C606211702068006820F0010021682E
:109A000008602046FDF7ECFA0EE020684069C0F3DC
:109A1000801030B120680069C1B2626A501C606277
:109A200011702046FDF70CFC94F83D00282811D158
:109A3000206C00F0040004280CD10848E0620020EB
:109A40002063202084F83D00002084F83E0020465A
:109A5000FDF78CFC70BD0000899800080000FFFF36
:109A600070B50446E56A608D032817D1042D04D033
:109A7000082D02D015F5803F05D12068006820F43C
:109A800080602168086020680069C1B2626A501C69
:109A900060621170608D401E60855BE0608D022801
:109AA0004ED1042D15D0082D13D015F5803F10D0C0
:109AB0002068006820F4806021680860022D01D0D1
:109AC000012D0CD12068006840F480702168086086
:109AD00005E02068006840F4007021680860206894
